{
  "_format": "hh-sol-artifact-1",
  "contractName": "Products",
  "sourceName": "contracts/Products.sol",
  "abi": [
    {
      "anonymous": false,
      "inputs": [
        {
          "components": [
            {
              "internalType": "string",
              "name": "nameOfProd",
              "type": "string"
            },
            {
              "internalType": "uint256",
              "name": "uniqueId",
              "type": "uint256"
            },
            {
              "internalType": "string",
              "name": "orgnCounty",
              "type": "string"
            },
            {
              "internalType": "address",
              "name": "owner",
              "type": "address"
            }
          ],
          "indexed": false,
          "internalType": "struct Products.ProductInfo",
          "name": "product",
          "type": "tuple"
        }
      ],
      "name": "productAdded",
      "type": "event"
    },
    {
      "inputs": [
        {
          "internalType": "string",
          "name": "_productName",
          "type": "string"
        },
        {
          "internalType": "string",
          "name": "_originCountry",
          "type": "string"
        },
        {
          "internalType": "uint256",
          "name": "_id",
          "type": "uint256"
        }
      ],
      "name": "addProd",
      "outputs": [],
      "stateMutability": "nonpayable",
      "type": "function"
    },
    {
      "inputs": [],
      "name": "getProd",
      "outputs": [
        {
          "components": [
            {
              "internalType": "string",
              "name": "nameOfProd",
              "type": "string"
            },
            {
              "internalType": "uint256",
              "name": "uniqueId",
              "type": "uint256"
            },
            {
              "internalType": "string",
              "name": "orgnCounty",
              "type": "string"
            },
            {
              "internalType": "address",
              "name": "owner",
              "type": "address"
            }
          ],
          "internalType": "struct Products.ProductInfo[]",
          "name": "",
          "type": "tuple[]"
        }
      ],
      "stateMutability": "view",
      "type": "function"
    }
  ],
  "bytecode": "0x608060405234801561001057600080fd5b50610968806100206000396000f3fe608060405234801561001057600080fd5b50600436106100365760003560e01c80633c98dc9d1461003b578063c46c51aa14610059575b600080fd5b610043610075565b60405161005091906106dc565b60405180910390f35b610073600480360381019061006e91906104a9565b610258565b005b60606000805480602002602001604051908101604052809291908181526020016000905b8282101561024f57838290600052602060002090600402016040518060800160405290816000820180546100cc90610849565b80601f01602080910402602001604051908101604052809291908181526020018280546100f890610849565b80156101455780601f1061011a57610100808354040283529160200191610145565b820191906000526020600020905b81548152906001019060200180831161012857829003601f168201915b505050505081526020016001820154815260200160028201805461016890610849565b80601f016020809104026020016040519081016040528092919081815260200182805461019490610849565b80156101e15780601f106101b6576101008083540402835291602001916101e1565b820191906000526020600020905b8154815290600101906020018083116101c457829003601f168201915b505050505081526020016003820160009054906101000a900473ffffffffffffffffffffffffffffffffffffffff1673ffffffffffffffffffffffffffffffffffffffff1673ffffffffffffffffffffffffffffffffffffffff168152505081526020019060010190610099565b50505050905090565b600060405180608001604052808581526020018381526020018481526020013373ffffffffffffffffffffffffffffffffffffffff168152509050600081908060018154018082558091505060019003906000526020600020906004020160009091909190915060008201518160000190805190602001906102db929190610389565b50602082015181600101556040820151816002019080519060200190610302929190610389565b5060608201518160030160006101000a81548173ffffffffffffffffffffffffffffffffffffffff021916908373ffffffffffffffffffffffffffffffffffffffff16021790555050507fecec72f22dba5f9041ec70f8a5e79c3e4559b24388f97108b3737771ad822eca8160405161037b91906106fe565b60405180910390a150505050565b82805461039590610849565b90600052602060002090601f0160209004810192826103b757600085556103fe565b82601f106103d057805160ff19168380011785556103fe565b828001600101855582156103fe579182015b828111156103fd5782518255916020019190600101906103e2565b5b50905061040b919061040f565b5090565b5b80821115610428576000816000905550600101610410565b5090565b600061043f61043a84610745565b610720565b90508281526020810184848401111561045757600080fd5b610462848285610807565b509392505050565b600082601f83011261047b57600080fd5b813561048b84826020860161042c565b91505092915050565b6000813590506104a38161091b565b92915050565b6000806000606084860312156104be57600080fd5b600084013567ffffffffffffffff8111156104d857600080fd5b6104e48682870161046a565b935050602084013567ffffffffffffffff81111561050157600080fd5b61050d8682870161046a565b925050604061051e86828701610494565b9150509250925092565b600061053483836105f9565b905092915050565b610545816107cb565b82525050565b600061055682610786565b61056081856107a9565b93508360208202850161057285610776565b8060005b858110156105ae578484038952815161058f8582610528565b945061059a8361079c565b925060208a01995050600181019050610576565b50829750879550505050505092915050565b60006105cb82610791565b6105d581856107ba565b93506105e5818560208601610816565b6105ee8161090a565b840191505092915050565b6000608083016000830151848203600086015261061682826105c0565b915050602083015161062b60208601826106cd565b506040830151848203604086015261064382826105c0565b9150506060830151610658606086018261053c565b508091505092915050565b6000608083016000830151848203600086015261068082826105c0565b915050602083015161069560208601826106cd565b50604083015184820360408601526106ad82826105c0565b91505060608301516106c2606086018261053c565b508091505092915050565b6106d6816107fd565b82525050565b600060208201905081810360008301526106f6818461054b565b905092915050565b600060208201905081810360008301526107188184610663565b905092915050565b600061072a61073b565b9050610736828261087b565b919050565b6000604051905090565b600067ffffffffffffffff8211156107605761075f6108db565b5b6107698261090a565b9050602081019050919050565b6000819050602082019050919050565b600081519050919050565b600081519050919050565b6000602082019050919050565b600082825260208201905092915050565b600082825260208201905092915050565b60006107d6826107dd565b9050919050565b600073ffffffffffffffffffffffffffffffffffffffff82169050919050565b6000819050919050565b82818337600083830152505050565b60005b83811015610834578082015181840152602081019050610819565b83811115610843576000848401525b50505050565b6000600282049050600182168061086157607f821691505b60208210811415610875576108746108ac565b5b50919050565b6108848261090a565b810181811067ffffffffffffffff821117156108a3576108a26108db565b5b80604052505050565b7f4e487b7100000000000000000000000000000000000000000000000000000000600052602260045260246000fd5b7f4e487b7100000000000000000000000000000000000000000000000000000000600052604160045260246000fd5b6000601f19601f8301169050919050565b610924816107fd565b811461092f57600080fd5b5056fea2646970667358221220817f90565d35a91ff0cd28e3fa6c6b52ff3b6dc90998e1757a0b317f249d5d7464736f6c63430008040033",
  "linkReferences": {},
  "deployedLinkReferences": {}
}